{
  "_format": "hh-sol-artifact-1",
  "contractName": "magic_attack",
  "sourceName": "contracts/magic_attack.sol",
  "abi": [
    {
      "inputs": [],
      "stateMutability": "nonpayable",
      "type": "constructor"
    },
    {
      "anonymous": false,
      "inputs": [
        {
          "indexed": true,
          "internalType": "bytes32",
          "name": "role",
          "type": "bytes32"
        },
        {
          "indexed": true,
          "internalType": "bytes32",
          "name": "previousAdminRole",
          "type": "bytes32"
        },
        {
          "indexed": true,
          "internalType": "bytes32",
          "name": "newAdminRole",
          "type": "bytes32"
        }
      ],
      "name": "RoleAdminChanged",
      "type": "event"
    },
    {
      "anonymous": false,
      "inputs": [
        {
          "indexed": true,
          "internalType": "bytes32",
          "name": "role",
          "type": "bytes32"
        },
        {
          "indexed": true,
          "internalType": "address",
          "name": "account",
          "type": "address"
        },
        {
          "indexed": true,
          "internalType": "address",
          "name": "sender",
          "type": "address"
        }
      ],
      "name": "RoleGranted",
      "type": "event"
    },
    {
      "anonymous": false,
      "inputs": [
        {
          "indexed": true,
          "internalType": "bytes32",
          "name": "role",
          "type": "bytes32"
        },
        {
          "indexed": true,
          "internalType": "address",
          "name": "account",
          "type": "address"
        },
        {
          "indexed": true,
          "internalType": "address",
          "name": "sender",
          "type": "address"
        }
      ],
      "name": "RoleRevoked",
      "type": "event"
    },
    {
      "inputs": [],
      "name": "DEFAULT_ADMIN_ROLE",
      "outputs": [
        {
          "internalType": "bytes32",
          "name": "",
          "type": "bytes32"
        }
      ],
      "stateMutability": "view",
      "type": "function"
    },
    {
      "inputs": [],
      "name": "_map",
      "outputs": [
        {
          "internalType": "contract IALCX_map",
          "name": "",
          "type": "address"
        }
      ],
      "stateMutability": "view",
      "type": "function"
    },
    {
      "inputs": [],
      "name": "_mapNFTs",
      "outputs": [
        {
          "internalType": "contract IERC721PresetMinterPauserAutoId",
          "name": "",
          "type": "address"
        }
      ],
      "stateMutability": "view",
      "type": "function"
    },
    {
      "inputs": [
        {
          "internalType": "uint256",
          "name": "_x",
          "type": "uint256"
        },
        {
          "internalType": "uint256",
          "name": "_y",
          "type": "uint256"
        },
        {
          "internalType": "uint256",
          "name": "_amount",
          "type": "uint256"
        }
      ],
      "name": "decreaseLandsProtection",
      "outputs": [],
      "stateMutability": "nonpayable",
      "type": "function"
    },
    {
      "inputs": [
        {
          "internalType": "bytes32",
          "name": "role",
          "type": "bytes32"
        }
      ],
      "name": "getRoleAdmin",
      "outputs": [
        {
          "internalType": "bytes32",
          "name": "",
          "type": "bytes32"
        }
      ],
      "stateMutability": "view",
      "type": "function"
    },
    {
      "inputs": [
        {
          "internalType": "bytes32",
          "name": "role",
          "type": "bytes32"
        },
        {
          "internalType": "uint256",
          "name": "index",
          "type": "uint256"
        }
      ],
      "name": "getRoleMember",
      "outputs": [
        {
          "internalType": "address",
          "name": "",
          "type": "address"
        }
      ],
      "stateMutability": "view",
      "type": "function"
    },
    {
      "inputs": [
        {
          "internalType": "bytes32",
          "name": "role",
          "type": "bytes32"
        }
      ],
      "name": "getRoleMemberCount",
      "outputs": [
        {
          "internalType": "uint256",
          "name": "",
          "type": "uint256"
        }
      ],
      "stateMutability": "view",
      "type": "function"
    },
    {
      "inputs": [
        {
          "internalType": "bytes32",
          "name": "role",
          "type": "bytes32"
        },
        {
          "internalType": "address",
          "name": "account",
          "type": "address"
        }
      ],
      "name": "grantRole",
      "outputs": [],
      "stateMutability": "nonpayable",
      "type": "function"
    },
    {
      "inputs": [
        {
          "internalType": "bytes32",
          "name": "role",
          "type": "bytes32"
        },
        {
          "internalType": "address",
          "name": "account",
          "type": "address"
        }
      ],
      "name": "hasRole",
      "outputs": [
        {
          "internalType": "bool",
          "name": "",
          "type": "bool"
        }
      ],
      "stateMutability": "view",
      "type": "function"
    },
    {
      "inputs": [
        {
          "internalType": "uint256",
          "name": "_x",
          "type": "uint256"
        },
        {
          "internalType": "uint256",
          "name": "_y",
          "type": "uint256"
        },
        {
          "internalType": "uint256",
          "name": "_amount",
          "type": "uint256"
        }
      ],
      "name": "increaseLandsProtection",
      "outputs": [],
      "stateMutability": "nonpayable",
      "type": "function"
    },
    {
      "inputs": [
        {
          "internalType": "uint256",
          "name": "_attackX",
          "type": "uint256"
        },
        {
          "internalType": "uint256",
          "name": "_attackY",
          "type": "uint256"
        },
        {
          "internalType": "uint256",
          "name": "_fromX",
          "type": "uint256"
        },
        {
          "internalType": "uint256",
          "name": "_fromY",
          "type": "uint256"
        },
        {
          "internalType": "uint256",
          "name": "_amount",
          "type": "uint256"
        }
      ],
      "name": "magicAttack",
      "outputs": [],
      "stateMutability": "nonpayable",
      "type": "function"
    },
    {
      "inputs": [
        {
          "internalType": "bytes32",
          "name": "role",
          "type": "bytes32"
        },
        {
          "internalType": "address",
          "name": "account",
          "type": "address"
        }
      ],
      "name": "renounceRole",
      "outputs": [],
      "stateMutability": "nonpayable",
      "type": "function"
    },
    {
      "inputs": [
        {
          "internalType": "bytes32",
          "name": "role",
          "type": "bytes32"
        },
        {
          "internalType": "address",
          "name": "account",
          "type": "address"
        }
      ],
      "name": "revokeRole",
      "outputs": [],
      "stateMutability": "nonpayable",
      "type": "function"
    },
    {
      "inputs": [
        {
          "internalType": "bytes4",
          "name": "interfaceId",
          "type": "bytes4"
        }
      ],
      "name": "supportsInterface",
      "outputs": [
        {
          "internalType": "bool",
          "name": "",
          "type": "bool"
        }
      ],
      "stateMutability": "view",
      "type": "function"
    },
    {
      "inputs": [
        {
          "internalType": "address",
          "name": "_mapAddr",
          "type": "address"
        },
        {
          "internalType": "address",
          "name": "_mapNFTsAddr",
          "type": "address"
        }
      ],
      "name": "updateMapAddr",
      "outputs": [],
      "stateMutability": "nonpayable",
      "type": "function"
    }
  ],
  "bytecode": "0x60806040523480156200001157600080fd5b506200001f60003362000025565b6200018a565b6200003c82826200006860201b620012601760201c565b6000828152600160209081526040909120620000639183906200126e62000078821b17901c565b505050565b62000074828262000098565b5050565b60006200008f836001600160a01b03841662000138565b90505b92915050565b6000828152602081815260408083206001600160a01b038516845290915290205460ff1662000074576000828152602081815260408083206001600160a01b03851684529091529020805460ff19166001179055620000f43390565b6001600160a01b0316816001600160a01b0316837f2f8788117e7eff1d82e926ec794901d17c78024a50270940304540a733656f0d60405160405180910390a45050565b6000818152600183016020526040812054620001815750815460018181018455600084815260208082209093018490558454848252828601909352604090209190915562000092565b50600062000092565b611b9b806200019a6000396000f3fe608060405234801561001057600080fd5b50600436106100f55760003560e01c80639010d07c11610097578063a217fddf11610066578063a217fddf14610218578063a26b632514610220578063ca15c87314610233578063d547741f1461024657600080fd5b80639010d07c146101cc57806391d14854146101df5780639717aaa3146101f2578063983bb8491461020557600080fd5b806336568abe116100d357806336568abe146101685780636ba823101461017b57806378074e03146101a65780638ba74b96146101b957600080fd5b806301ffc9a7146100fa578063248a9ca3146101225780632f2ff15d14610153575b600080fd5b61010d6101083660046118d6565b610259565b60405190151581526020015b60405180910390f35b610145610130366004611876565b60009081526020819052604090206001015490565b604051908152602001610119565b61016661016136600461188f565b610284565b005b61016661017636600461188f565b6102ab565b60025461018e906001600160a01b031681565b6040516001600160a01b039091168152602001610119565b6101666101b4366004611919565b6102cd565b60035461018e906001600160a01b031681565b61018e6101da3660046118b4565b6105c2565b61010d6101ed36600461188f565b6105e1565b61016661020036600461181b565b61060a565b610166610213366004611919565b61065f565b610145600081565b61016661022e366004611945565b6109ed565b610145610241366004611876565b61123f565b61016661025436600461188f565b611256565b60006001600160e01b03198216635a05180f60e01b148061027e575061027e82611283565b92915050565b61028e82826112b8565b60008281526001602052604090206102a6908261126e565b505050565b6102b582826112de565b60008281526001602052604090206102a69082611358565b806103135760405162461bcd60e51b815260206004820152601160248201527063616e27742073656e642030204e46547360781b60448201526064015b60405180910390fd5b600354600254604051638729d91360e01b8152600481018690526024810185905233926001600160a01b0390811692636352211e92911690638729d9139060440160206040518083038186803b15801561036c57600080fd5b505afa158015610380573d6000803e3d6000fd5b505050506040513d601f19601f820116820180604052508101906103a49190611900565b6040518263ffffffff1660e01b81526004016103c291815260200190565b60206040518083038186803b1580156103da57600080fd5b505afa1580156103ee573d6000803e3d6000fd5b505050506040513d601f19601f8201168201806040525081019061041291906117fe565b6001600160a01b0316146104685760405162461bcd60e51b815260206004820152601b60248201527f6164647265737320646f65736e2774206f776e206163636f756e740000000000604482015260640161030a565b600254604051633fda934f60e11b815260048101859052602481018490526001600160a01b0390911690636404a28190339030908490637fb5269e9060440160206040518083038186803b1580156104bf57600080fd5b505afa1580156104d3573d6000803e3d6000fd5b505050506040513d601f19601f820116820180604052508101906104f79190611900565b856040518563ffffffff1660e01b815260040161051794939291906119f5565b600060405180830381600087803b15801561053157600080fd5b505af1158015610545573d6000803e3d6000fd5b505060025460405163bef6002960e01b8152600481018790526024810186905260016044820152606481018590526001600160a01b03909116925063bef6002991506084015b600060405180830381600087803b1580156105a557600080fd5b505af11580156105b9573d6000803e3d6000fd5b50505050505050565b60008281526001602052604081206105da908361136d565b9392505050565b6000918252602082815260408084206001600160a01b0393909316845291905290205460ff1690565b6001600160a01b03821661061d57600080fd5b6106286000336105e1565b61063157600080fd5b600280546001600160a01b039384166001600160a01b03199182161790915560038054929093169116179055565b806106a05760405162461bcd60e51b815260206004820152601160248201527063616e27742073656e642030204e46547360781b604482015260640161030a565b600354600254604051638729d91360e01b8152600481018690526024810185905233926001600160a01b0390811692636352211e92911690638729d9139060440160206040518083038186803b1580156106f957600080fd5b505afa15801561070d573d6000803e3d6000fd5b505050506040513d601f19601f820116820180604052508101906107319190611900565b6040518263ffffffff1660e01b815260040161074f91815260200190565b60206040518083038186803b15801561076757600080fd5b505afa15801561077b573d6000803e3d6000fd5b505050506040513d601f19601f8201168201806040525081019061079f91906117fe565b6001600160a01b0316146107f55760405162461bcd60e51b815260206004820152601b60248201527f6164647265737320646f65736e2774206f776e206163636f756e740000000000604482015260640161030a565b60025460405163388e053f60e21b8152600481018590526024810184905282916001600160a01b03169063e23814fc9060440160206040518083038186803b15801561084057600080fd5b505afa158015610854573d6000803e3d6000fd5b505050506040513d601f19601f820116820180604052508101906108789190611900565b10156108c65760405162461bcd60e51b815260206004820152601760248201527f4e6f7420656e6f756768204e465473206f6e2074696c65000000000000000000604482015260640161030a565b600254604051633fda934f60e11b815260048101859052602481018490526001600160a01b0390911690636404a28190309033908490637fb5269e9060440160206040518083038186803b15801561091d57600080fd5b505afa158015610931573d6000803e3d6000fd5b505050506040513d601f19601f820116820180604052508101906109559190611900565b856040518563ffffffff1660e01b815260040161097594939291906119f5565b600060405180830381600087803b15801561098f57600080fd5b505af11580156109a3573d6000803e3d6000fd5b505060025460405163bef6002960e01b8152600481018790526024810186905260006044820152606481018590526001600160a01b03909116925063bef60029915060840161058b565b82851415806109fc5750818414155b610a405760405162461bcd60e51b815260206004820152601560248201527431b0b73a1030ba3a30b1b5903cb7bab91039b2b63360591b604482015260640161030a565b600254604051631576ae2560e31b8152600481018790526024810186905260448101859052606481018490526001600160a01b039091169063abb571289060840160206040518083038186803b158015610a9957600080fd5b505afa158015610aad573d6000803e3d6000fd5b505050506040513d601f19601f82011682018060405250810190610ad19190611900565b600114610b0f5760405162461bcd60e51b815260206004820152600c60248201526b546f6f20666172206177617960a01b604482015260640161030a565b60025460405163fdc1437760e01b8152600481018790526024810186905260448101859052606481018490526001600160a01b039091169063fdc143779060840160206040518083038186803b158015610b6857600080fd5b505afa158015610b7c573d6000803e3d6000fd5b505050506040513d601f19601f82011682018060405250810190610ba09190611854565b610c035760405162461bcd60e51b815260206004820152602e60248201527f43616e742064657374726f79207468617420617320697420776f756c6420736560448201526d070617261746520746865206d61760941b606482015260840161030a565b600254604051633fda934f60e11b815260048101879052602481018690526001600160a01b0390911690636404a28190339030908490637fb5269e9060440160206040518083038186803b158015610c5a57600080fd5b505afa158015610c6e573d6000803e3d6000fd5b505050506040513d601f19601f82011682018060405250810190610c929190611900565b856040518563ffffffff1660e01b8152600401610cb294939291906119f5565b600060405180830381600087803b158015610ccc57600080fd5b505af1158015610ce0573d6000803e3d6000fd5b505060025460405163388e053f60e21b815260048101899052602481018890526001600160a01b03909116925063e23814fc915060440160206040518083038186803b158015610d2f57600080fd5b505afa158015610d43573d6000803e3d6000fd5b505050506040513d601f19601f82011682018060405250810190610d679190611900565b811015610f5557600254604051633fda934f60e11b815260048101879052602481018690526001600160a01b0390911690636404a2819030906001908490637fb5269e9060440160206040518083038186803b158015610dc657600080fd5b505afa158015610dda573d6000803e3d6000fd5b505050506040513d601f19601f82011682018060405250810190610dfe9190611900565b60025460405163388e053f60e21b8152600481018c9052602481018b90526001600160a01b039091169063e23814fc9060440160206040518083038186803b158015610e4957600080fd5b505afa158015610e5d573d6000803e3d6000fd5b505050506040513d601f19601f82011682018060405250810190610e819190611900565b610e8c906002611a78565b6040518563ffffffff1660e01b8152600401610eab94939291906119f5565b600060405180830381600087803b158015610ec557600080fd5b505af1158015610ed9573d6000803e3d6000fd5b505060025460405163bef6002960e01b8152600481018990526024810188905260006044820152606481018590526001600160a01b03909116925063bef600299150608401600060405180830381600087803b158015610f3857600080fd5b505af1158015610f4c573d6000803e3d6000fd5b50505050611238565b60025460405163388e053f60e21b815260048101879052602481018690526001600160a01b039091169063bef600299087908790600090859063e23814fc9060440160206040518083038186803b158015610faf57600080fd5b505afa158015610fc3573d6000803e3d6000fd5b505050506040513d601f19601f82011682018060405250810190610fe79190611900565b6040516001600160e01b031960e087901b16815260048101949094526024840192909252151560448301526064820152608401600060405180830381600087803b15801561103457600080fd5b505af1158015611048573d6000803e3d6000fd5b5050600254604051633fda934f60e11b815260048101899052602481018890526001600160a01b039091169250636404a281915030906001908490637fb5269e9060440160206040518083038186803b1580156110a457600080fd5b505afa1580156110b8573d6000803e3d6000fd5b505050506040513d601f19601f820116820180604052508101906110dc9190611900565b6110e7866002611a78565b6040518563ffffffff1660e01b815260040161110694939291906119f5565b600060405180830381600087803b15801561112057600080fd5b505af1158015611134573d6000803e3d6000fd5b505060025460405163fdc1437760e01b8152600481018990526024810188905260448101879052606481018690526001600160a01b03909116925063fdc14377915060840160206040518083038186803b15801561119157600080fd5b505afa1580156111a5573d6000803e3d6000fd5b505050506040513d601f19601f820116820180604052508101906111c99190611854565b6111d257600080fd5b60025460405163e96a0d9560e01b815260048101879052602481018690526001600160a01b039091169063e96a0d9590604401600060405180830381600087803b15801561121f57600080fd5b505af1158015611233573d6000803e3d6000fd5b505050505b5050505050565b600081815260016020526040812061027e90611379565b6102b58282611383565b61126a82826113a9565b5050565b60006105da836001600160a01b03841661142d565b60006001600160e01b03198216637965db0b60e01b148061027e57506301ffc9a760e01b6001600160e01b031983161461027e565b6000828152602081905260409020600101546112d4813361147c565b6102a683836113a9565b6001600160a01b038116331461134e5760405162461bcd60e51b815260206004820152602f60248201527f416363657373436f6e74726f6c3a2063616e206f6e6c792072656e6f756e636560448201526e103937b632b9903337b91039b2b63360891b606482015260840161030a565b61126a82826114e0565b60006105da836001600160a01b038416611545565b60006105da8383611638565b600061027e825490565b60008281526020819052604090206001015461139f813361147c565b6102a683836114e0565b6113b382826105e1565b61126a576000828152602081815260408083206001600160a01b03851684529091529020805460ff191660011790556113e93390565b6001600160a01b0316816001600160a01b0316837f2f8788117e7eff1d82e926ec794901d17c78024a50270940304540a733656f0d60405160405180910390a45050565b60008181526001830160205260408120546114745750815460018181018455600084815260208082209093018490558454848252828601909352604090209190915561027e565b50600061027e565b61148682826105e1565b61126a5761149e816001600160a01b03166014611662565b6114a9836020611662565b6040516020016114ba929190611980565b60408051601f198184030181529082905262461bcd60e51b825261030a91600401611a2d565b6114ea82826105e1565b1561126a576000828152602081815260408083206001600160a01b0385168085529252808320805460ff1916905551339285917ff6391f5c32d9c69d2a47ea670b442974b53935d1edc7fd64eb21e047a839171b9190a45050565b6000818152600183016020526040812054801561162e576000611569600183611a97565b855490915060009061157d90600190611a97565b90508181146115e257600086600001828154811061159d5761159d611b21565b90600052602060002001549050808760000184815481106115c0576115c0611b21565b6000918252602080832090910192909255918252600188019052604090208390555b85548690806115f3576115f3611b0b565b60019003818190600052602060002001600090559055856001016000868152602001908152602001600020600090556001935050505061027e565b600091505061027e565b600082600001828154811061164f5761164f611b21565b9060005260206000200154905092915050565b60606000611671836002611a78565b61167c906002611a60565b67ffffffffffffffff81111561169457611694611b37565b6040519080825280601f01601f1916602001820160405280156116be576020820181803683370190505b509050600360fc1b816000815181106116d9576116d9611b21565b60200101906001600160f81b031916908160001a905350600f60fb1b8160018151811061170857611708611b21565b60200101906001600160f81b031916908160001a905350600061172c846002611a78565b611737906001611a60565b90505b60018111156117af576f181899199a1a9b1b9c1cb0b131b232b360811b85600f166010811061176b5761176b611b21565b1a60f81b82828151811061178157611781611b21565b60200101906001600160f81b031916908160001a90535060049490941c936117a881611ade565b905061173a565b5083156105da5760405162461bcd60e51b815260206004820181905260248201527f537472696e67733a20686578206c656e67746820696e73756666696369656e74604482015260640161030a565b60006020828403121561181057600080fd5b81516105da81611b4d565b6000806040838503121561182e57600080fd5b823561183981611b4d565b9150602083013561184981611b4d565b809150509250929050565b60006020828403121561186657600080fd5b815180151581146105da57600080fd5b60006020828403121561188857600080fd5b5035919050565b600080604083850312156118a257600080fd5b82359150602083013561184981611b4d565b600080604083850312156118c757600080fd5b50508035926020909101359150565b6000602082840312156118e857600080fd5b81356001600160e01b0319811681146105da57600080fd5b60006020828403121561191257600080fd5b5051919050565b60008060006060848603121561192e57600080fd5b505081359360208301359350604090920135919050565b600080600080600060a0868803121561195d57600080fd5b505083359560208501359550604085013594606081013594506080013592509050565b7f416363657373436f6e74726f6c3a206163636f756e74200000000000000000008152600083516119b8816017850160208801611aae565b7001034b99036b4b9b9b4b733903937b6329607d1b60179184019182015283516119e9816028840160208801611aae565b01602801949350505050565b6001600160a01b0394851681529290931660208301526040820152606081019190915260a06080820181905260009082015260c00190565b6020815260008251806020840152611a4c816040850160208701611aae565b601f01601f19169190910160400192915050565b60008219821115611a7357611a73611af5565b500190565b6000816000190483118215151615611a9257611a92611af5565b500290565b600082821015611aa957611aa9611af5565b500390565b60005b83811015611ac9578181015183820152602001611ab1565b83811115611ad8576000848401525b50505050565b600081611aed57611aed611af5565b506000190190565b634e487b7160e01b600052601160045260246000fd5b634e487b7160e01b600052603160045260246000fd5b634e487b7160e01b600052603260045260246000fd5b634e487b7160e01b600052604160045260246000fd5b6001600160a01b0381168114611b6257600080fd5b5056fea264697066735822122022d2d49bf104134a82bbc31f18b80e3636e7fdcf468c021161b646f5b007b12964736f6c63430008070033",
  "linkReferences": {},
  "deployedLinkReferences": {}
}