{
  "_format": "hh-sol-artifact-1",
  "contractName": "DAO_mint",
  "sourceName": "contracts/DAO_mint.sol",
  "abi": [
    {
      "inputs": [],
      "stateMutability": "nonpayable",
      "type": "constructor"
    },
    {
      "inputs": [],
      "name": "admin",
      "outputs": [
        {
          "internalType": "address",
          "name": "",
          "type": "address"
        }
      ],
      "stateMutability": "view",
      "type": "function"
    },
    {
      "inputs": [
        {
          "internalType": "address",
          "name": "_to",
          "type": "address"
        }
      ],
      "name": "changeDAOAddr",
      "outputs": [],
      "stateMutability": "nonpayable",
      "type": "function"
    },
    {
      "inputs": [
        {
          "internalType": "uint256[]",
          "name": "_ids",
          "type": "uint256[]"
        },
        {
          "internalType": "uint256[]",
          "name": "_amounts",
          "type": "uint256[]"
        },
        {
          "internalType": "bytes",
          "name": "_data",
          "type": "bytes"
        }
      ],
      "name": "getNFTs",
      "outputs": [],
      "stateMutability": "nonpayable",
      "type": "function"
    },
    {
      "inputs": [
        {
          "internalType": "address",
          "name": "",
          "type": "address"
        }
      ],
      "name": "max_NFT",
      "outputs": [
        {
          "internalType": "uint256",
          "name": "",
          "type": "uint256"
        }
      ],
      "stateMutability": "view",
      "type": "function"
    },
    {
      "inputs": [],
      "name": "max_amount",
      "outputs": [
        {
          "internalType": "uint256",
          "name": "",
          "type": "uint256"
        }
      ],
      "stateMutability": "view",
      "type": "function"
    },
    {
      "inputs": [],
      "name": "max_id",
      "outputs": [
        {
          "internalType": "uint256",
          "name": "",
          "type": "uint256"
        }
      ],
      "stateMutability": "view",
      "type": "function"
    }
  ],
  "bytecode": "0x6080604052600a600155600460025534801561001a57600080fd5b50600480546001600160a01b031916331790556106438061003c6000396000f3fe608060405234801561001057600080fd5b50600436106100625760003560e01c80630c6d784f146100675780631a34fe81146100835780633603444b1461008c5780639e15df90146100a1578063c32e352f146100c1578063f851a440146100d4575b600080fd5b61007060025481565b6040519081526020015b60405180910390f35b61007060015481565b61009f61009a366004610394565b6100ff565b005b6100706100af366004610394565b60036020526000908152604090205481565b61009f6100cf3660046103c4565b61014b565b6004546100e7906001600160a01b031681565b6040516001600160a01b03909116815260200161007a565b6004546001600160a01b0316331461011657600080fd5b6001600160a01b03811661012957600080fd5b600080546001600160a01b0319166001600160a01b0392909216919091179055565b81518351146101945760405162461bcd60e51b815260206004820152601060248201526f0dcdee840cae2eac2d840d8cadccee8d60831b60448201526064015b60405180910390fd5b6005825111156101db5760405162461bcd60e51b81526020600482015260126024820152711b585e081a59081b9d5b58995c881a5cc80d60721b604482015260640161018b565b6000805b83518160ff16101561025257838160ff1681518110610200576102006105e1565b6020026020010151826102139190610593565b9150600254858260ff168151811061022d5761022d6105e1565b6020026020010151111561024057600080fd5b8061024a816105ab565b9150506101df565b5033600090815260036020526040902054600a906102709083610593565b111561027b57600080fd5b600054604051630fbfeffd60e11b81526001600160a01b0390911690631f7fdffa906102b19033908890889088906004016104d9565b600060405180830381600087803b1580156102cb57600080fd5b505af11580156102df573d6000803e3d6000fd5b50503360009081526003602052604081208054859450909250610303908490610593565b909155505050505050565b600082601f83011261031f57600080fd5b8135602067ffffffffffffffff82111561033b5761033b6105f7565b8160051b61034a828201610562565b83815282810190868401838801850189101561036557600080fd5b600093505b8584101561038857803583526001939093019291840191840161036a565b50979650505050505050565b6000602082840312156103a657600080fd5b81356001600160a01b03811681146103bd57600080fd5b9392505050565b6000806000606084860312156103d957600080fd5b833567ffffffffffffffff808211156103f157600080fd5b6103fd8783880161030e565b945060209150818601358181111561041457600080fd5b6104208882890161030e565b94505060408601358181111561043557600080fd5b8601601f8101881361044657600080fd5b803582811115610458576104586105f7565b61046a601f8201601f19168501610562565b9250808352888482840101111561048057600080fd5b80848301858501376000848285010152505080925050509250925092565b600081518084526020808501945080840160005b838110156104ce578151875295820195908201906001016104b2565b509495945050505050565b6001600160a01b0385168152608060208083018290526000916104fe9084018761049e565b8381036040850152610510818761049e565b90508381036060850152845180825260005b8181101561053d578681018401518382018501528301610522565b8181111561054e5760008483850101525b50601f01601f191601019695505050505050565b604051601f8201601f1916810167ffffffffffffffff8111828210171561058b5761058b6105f7565b604052919050565b600082198211156105a6576105a66105cb565b500190565b600060ff821660ff8114156105c2576105c26105cb565b60010192915050565b634e487b7160e01b600052601160045260246000fd5b634e487b7160e01b600052603260045260246000fd5b634e487b7160e01b600052604160045260246000fdfea26469706673582212206fa690c581651b6daf73a6664b4d419094ca1b0c5aa7a4a753f896037f9e7d3064736f6c63430008070033",
  "linkReferences": {},
  "deployedLinkReferences": {}
}